:100000000C9434000C9451000C9451000C94510049
:100010000C9437030C9451000C9451000C94510033
:100020000C9451000C9451000C9451000C9451000C
:100030000C9451000C9451000C9451000C945100FC
:100040000C9451000C9451000C947B020C945100C0
:100050000C9451000C94DE010C9451000C9451004E
:100060000C9451000C94510011241FBECFEFD8E026
:10007000DEBFCDBF11E0A0E0B1E0E8E6F7E002C0EE
:1000800005900D92A430B107D9F721E0A4E0B1E0CA
:1000900001C01D92A032B207E1F70E94CB010C947F
:1000A000B2030C940000ECE7F0E0108280818064E1
:1000B0008083808180628083808183608083EAE79F
:1000C000F0E01082808183608083808188608083FB
:1000D000808180688083808180648083089584B17A
:1000E000826084B984B1846084B9E0E8F0E0108271
:1000F000808180688083808180628083808181604C
:100100008083E1E8F0E010828081886080838081D4
:100110008360808308958AB180648AB98AB18062DD
:100120008AB914BC84B5806884BD84B5806284BDFE
:1001300084B5836084BD15BC85B5836085BD089595
:100140008AB182608AB98AB18E7F8AB9E0ECF0E028
:10015000808182608083E1ECF0E080818869808327
:1001600086E08093C2008CE090E09093C50080937D
:10017000C4000895F894E1E6F0E080E8808384E02C
:10018000808384B1886184B985B1877E85B987B160
:100190008C7F87B988B1836088B9E8E6F0E0808118
:1001A00082608083ECE6F0E08081836080830E943F
:1001B0008B000E946F000E9453000E94A000789460
:1001C0000895F999FECF70E072BD61BD80BD8FB317
:1001D00084608FBB8FB382608FBB0895F999FECF87
:1001E00090E092BD81BD8FB381608FBB80B50895D3
:1001F00085B1886085B985B18F7E85B9EAE7F0E081
:1002000080818064808380910001811102C01092FE
:100210000801811106C080910A01813011F4109209
:10022000090180910A01813009F045C080910901DE
:10023000853008F040C085B1877F85B98FED9EE29B
:100240000197F1F700C0000085B1886085B9609121
:10025000080181E0860F80930801809188009091C9
:1002600089000E94E1006091080181E0860F80937F
:10027000080180918A0090918B000E94E1006091BA
:10028000080181E0860F8093080187B50E94E10094
:100290006091080181E0860F8093080188B50E9473
:1002A000E10081E08093000110920A018091090130
:1002B0008F5F80930901089585B1806185B985B10B
:1002C000877F85B9109200018091050181110CC0D2
:1002D00080910A01813041F41092070110920601C9
:1002E0008093050110920A0180910501882309F489
:1002F00043C090910601809109019817D8F580912B
:10030000070191E0980F909307010E94EE0090E0A2
:1003100090938900809388008091070191E0980F65
:10032000909307010E94EE0090E090938B008093E1
:100330008A008091070191E0980F909307010E9435
:10034000EE0087BD8091070191E0980F909307011F
:100350000E94EE0088BD809106018F5F80930601A8
:100360002FEF81EE94E0215080409040E1F700C0F3
:100370000000089510920501089585B1886185B93E
:1003800010920601109200011092080110920701CC
:100390001092050108950E94BA00809102018230F6
:1003A00039F0833041F08130C1F70E94F800F5CF79
:1003B0000E945C01F2CF0E94BD01EFCF1F920F920D
:1003C0000FB60F9211242F933F934F935F936F9328
:1003D0007F938F939F93AF93BF93CF93EF93FF93AD
:1003E00080910201813009F074C0C0917C00CF700F
:1003F00020917900C43009F42095222364F030E084
:10040000A4EBB0E00E948F032FE730E040E050E023
:100410000E946D0301C024EBC430F1F018F4C33026
:1004200031F052C0C53069F1C630E9F14DC03BE151
:10043000239FC001112464EB70E00E945903675FA1
:100440007F4F70938B0060938A00ECE7F0E080812F
:10045000807F8460808338C03BE1239FC0011124EA
:1004600064EB70E00E945903675F7F4F70938900CF
:1004700060938800ECE7F0E08081807F8560808376
:1004800023C03BE1239FC001112464EB70E00E9474
:100490005903665F7F4F67BDECE7F0E08081807FA6
:1004A0008660808311C030E1239FC001112464EB7A
:1004B00070E00E9459036C5E7F4F68BDECE7F0E08E
:1004C0008081807F83608083EAE7F0E080818064C0
:1004D0008083FF91EF91CF91BF91AF919F918F91C9
:1004E0007F916F915F914F913F912F910F900FBE30
:1004F0000F901F9018951F920F920FB60F92112414
:100500002F933F934F935F936F937F938F939F931B
:10051000AF93BF93EF93FF93CF93DF9300D000D0BF
:10052000CDB7DEB780910201833009F089C0809198
:10053000C6008A3019F08D3009F074C0E0910401D2
:10054000F0E0E45FFE4F108219821A821B821C8247
:1005500020E080E090E060E02EC0E22FF0E0E45F79
:10056000FE4F308140ED430F4A3078F4AC01440F28
:10057000551F880F991F880F991F880F991F840F87
:10058000951F830F911DC09715C03C3211F031119A
:1005900011C0643078F4853B910510F084EB90E055
:1005A000E1E0F0E0EC0FFD1FE60FF11D80836F5FCF
:1005B00080E090E02F5F30910401321770F689815E
:1005C0002BE1289FC0011124E4EBF0E0BF010E9461
:1005D0005903675F7F4F70938B0060938A008A8115
:1005E000289FC0011124BF010E945903675F7F4FFC
:1005F00070938900609388008B81289FC00111242B
:10060000BF010E945903665F67BD8C8120E1829F14
:10061000C0011124BF010E9459036C5E68BD109295
:1006200004010EC090910401933150F4E091040153
:1006300091E09E0F90930401F0E0E45FFE4F808311
:100640000F900F900F900F90DF91CF91FF91EF914E
:10065000BF91AF919F918F917F916F915F914F91DA
:100660003F912F910F900FBE0F901F9018951F92E2
:100670000F920FB60F9211248F939F9330990DC054
:10068000809102018F5F809302019091010189178F
:1006900048F081E08093020105C0319903C081E0F8
:1006A00080930A019F918F910F900FBE0F901F9022
:1006B000189597FB072E16F4009407D077FD09D004
:1006C0000E949E0307FC05D03EF4909581959F4FB4
:1006D0000895709561957F4F0895A1E21A2EAA1B87
:1006E000BB1BFD010DC0AA1FBB1FEE1FFF1FA217E2
:1006F000B307E407F50720F0A21BB30BE40BF50BDF
:10070000661F771F881F991F1A9469F76095709567
:10071000809590959B01AC01BD01CF010895A29FEA
:10072000B001B39FC001A39F700D811D1124911DC5
:10073000B29F700D811D1124911D0895AA1BBB1B32
:1007400051E107C0AA1FBB1FA617B70710F0A61BD1
:10075000B70B881F991F5A95A9F780959095BC01F2
:08076000CD010895F894FFCFCC
:040768000104010087
:00000001FF
