:100000000C9434000C9451000C9451000C94510049
:100010000C94DA030C9451000C9451000C94510090
:100020000C9451000C9451000C9451000C9451000C
:100030000C9451000C9451000C9451000C945100FC
:100040000C9451000C9451000C940A030C94510030
:100050000C9451000C9434020C9451000C945100F7
:100060000C9451000C94510011241FBECFEFD8E026
:10007000DEBFCDBF11E0A0E0B1E0EEEAF8E002C0E3
:1000800005900D92A430B107D9F721E0A4E0B1E0CA
:1000900001C01D92A532B207E1F70E9421020C9423
:1000A00055040C940000ECE7F0E01082808180643D
:1000B0008083808180628083808183608083EAE79F
:1000C000F0E01082808183608083808188608083FB
:1000D000808180688083808180648083089584B17A
:1000E000826084B984B1846084B9E0E8F0E0108271
:1000F000808180688083808180628083808181604C
:100100008083E1E8F0E010828081886080838081D4
:100110008360808308958AB180648AB98AB18062DD
:100120008AB914BC84B5806884BD84B5806284BDFE
:1001300084B5836084BD15BC85B5836085BD089595
:100140008AB182608AB98AB18E7F8AB9E0ECF0E028
:10015000808182608083E1ECF0E080818869808327
:1001600086E08093C2008CE090E09093C50080937D
:10017000C4000895F894E1E6F0E080E8808384E02C
:10018000808384B1886184B985B1877E85B987B160
:100190008C7F87B988B1836088B9E8E6F0E0808118
:1001A00082608083ECE6F0E08081836080830E943F
:1001B0008B000E946F000E9453000E94A000789460
:1001C0000895F999FECF70E072BD61BD80BD8FB317
:1001D00084608FBB8FB382608FBB0895F999FECF87
:1001E00090E092BD81BD8FB381608FBB80B50895D3
:1001F000CF93DF9300D01F92CDB7DEB7811121C01E
:100200008091C00085FFFCCF80E38093C60030C0A2
:10021000E1E0F0E0EC0FFD1FE90FF11D2DEC829FF6
:10022000212D1124269526952695422F440F342FF3
:10023000330F330F340F831B805D8083822F9F5FCA
:1002400001C090E08111E4CF915010C08091C000B6
:1002500085FFFCCFE1E0F0E0EC0FFD1FE90FF11DA1
:1002600097FDFA9580818093C6009150992374F789
:100270000F900F900F90DF91CF9108959091C00053
:1002800095FFFCCF8093C600089585B1886085B93D
:1002900085B18F7E85B9EAE7F0E080818064808354
:1002A00080910001811102C010920C01811106C0E1
:1002B00080910F01813011F410920E0180910F0195
:1002C000813009F046C090910E01953008F041C090
:1002D00085B1877F85B98FED9EE20197F1F700C068
:1002E000000085B1886085B960910C0181E0860FBE
:1002F00080930C0180918800909189000E94E10018
:1003000060910C0181E0860F80930C0180918A003E
:1003100090918B000E94E10060910C0181E0860FBA
:1003200080930C0187B50E94E10060910C0181E08F
:10033000860F80930C0188B50E94E10081E08093D4
:10034000000110920F0180910E018F5F80930E01CA
:100350000895813031F480910E01853010F01092B3
:100360000F01089585B1806185B985B1877F85B911
:10037000109200018091090181110CC080910F0140
:10038000813041F410920B0110920A01809309010F
:1003900010920F0180910901813009F043C09091C2
:1003A0000A0180910E019817D8F580910B0191E018
:1003B000980F90930B010E94EE0090E090938900BB
:1003C0008093880080910B0191E0980F90930B012E
:1003D0000E94EE0090E090938B0080938A008091C1
:1003E0000B0191E0980F90930B010E94EE0087BDE6
:1003F00080910B0191E0980F90930B010E94EE0009
:1004000088BD80910A018F5F80930A012FEF81EEF2
:1004100094E0215080409040E1F700C00000089532
:1004200010920901089585B1886185B910920A0179
:100430001092000110920C0110920B011092090110
:1004400008950E94BA0080910201823039F0833011
:1004500041F08130C1F70E944501F5CF0E94B20101
:10046000F2CF0E941302EFCF1F920F920FB60F929E
:1004700011242F933F934F935F936F937F938F93A9
:100480009F93AF93BF93CF93DF93EF93FF938091AD
:100490000201813009F0ABC0C0917C00CF70C093E5
:1004A0000D018091790080931001DDEFDC0FC430E5
:1004B00019F4809580931001D33080F420911001BD
:1004C0002223E4F030E0A4EBB0E00E9432042FE7F6
:1004D00030E040E050E00E94100411C0C63079F4D2
:1004E0002091100130E0A4EBB0E00E9432042FEF25
:1004F00030E040E050E00E94100401C024EB30E006
:10050000C901880F991F220F331F220F331F220F9B
:10051000331F820F931FED2FF0E0EB5FFE4F208122
:100520003AE5239F800D911D112464E670E00E943E
:10053000FC036083C430F1F018F4C33031F052C0D2
:10054000C53069F1C630E9F14DC02BE1629FC001B1
:10055000112464EB70E00E94FC03675F7F4F70938F
:100560008B0060938A00ECE7F0E08081807F8460FC
:10057000808338C03BE1639FC001112464EB70E0CD
:100580000E94FC03675F7F4F70938900609388002F
:10059000ECE7F0E08081807F8560808323C02BE1E1
:1005A000629FC001112464EB70E00E94FC03665F4F
:1005B0007F4F67BDECE7F0E08081807F86608083BD
:1005C00011C030E1639FC001112464EB70E00E9410
:1005D000FC036C5E7F4F68BDECE7F0E08081807FBC
:1005E00083608083EAE7F0E0808180648083FF910C
:1005F000EF91DF91CF91BF91AF919F918F917F91BB
:100600006F915F914F913F912F910F900FBE0F907F
:100610001F9018951F920F920FB60F9211242F93CF
:100620003F934F935F936F937F938F939F93AF937A
:10063000BF93EF93FF93CF93DF9300D000D0CDB75C
:10064000DEB780910201833009F09DC08091C60021
:100650008A3019F08D3009F08CC0E0910401F0E08F
:10066000EF5EFE4F108219821A821B821C8220E0EC
:1006700080E090E060E02EC0E22FF0E0EF5EFE4F01
:10068000308140ED430F4A3078F4AC01440F551FE0
:10069000880F991F880F991F880F991F840F951F26
:1006A000830F911DC09715C03C3211F0311111C05C
:1006B000643078F4853B910510F084EB90E0E1E044
:1006C000F0E0EC0FFD1FE60FF11D80836F5F80E00F
:1006D00090E02F5F30910401321770F689812BE191
:1006E000289FC0011124E4EBF0E0BF010E94FC034D
:1006F000675F7F4F70938B0060938A008A81289F89
:10070000C0011124BF010E94FC03675F7F4F7093FB
:100710008900609388008B81289FC0011124BF014C
:100720000E94FC03665F67BD8C8120E1829FC0014F
:100730001124BF010E94FC036C5E68BD89810E9488
:10074000F8008CE20E943E018A810E94F8008CE24F
:100750000E943E018B810E94F8008CE20E943E01C3
:100760008C810E94F8008AE00E943E0110920401F0
:100770000AC0E091040191E09E0F90930401F0E023
:10078000EF5EFE4F80830F900F900F900F90DF91E0
:10079000CF91FF91EF91BF91AF919F918F917F91F9
:1007A0006F915F914F913F912F910F900FBE0F90DE
:1007B0001F9018951F920F920FB60F9211248F93CE
:1007C0009F9330990DC0809102018F5F8093020149
:1007D00090910101891748F081E08093020105C0E2
:1007E000319903C081E080930F019F918F910F9009
:1007F0000FBE0F901F90189597FB072E16F40094CC
:1008000007D077FD09D00E94410407FC05D03EF4D3
:10081000909581959F4F0895709561957F4F0895AC
:10082000A1E21A2EAA1BBB1BFD010DC0AA1FBB1FF4
:10083000EE1FFF1FA217B307E407F50720F0A21B66
:10084000B30BE40BF50B661F771F881F991F1A94D3
:1008500069F760957095809590959B01AC01BD01FD
:10086000CF010895A29FB001B39FC001A39F700D57
:10087000811D1124911DB29F700D811D1124911DA8
:100880000895AA1BBB1B51E107C0AA1FBB1FA617D7
:10089000B70710F0A61BB70B881F991F5A95A9F729
:0E08A00080959095BC01CD010895F894FFCF8E
:0408AE000104010040
:00000001FF
