S0130000526F626F7469635F41726D2E73726563C0
S11300000C9434000C9451000C9451000C94510045
S11300100C946A020C9451000C9451000C945100FD
S11300200C9451000C9451000C9451000C94510008
S11300300C9451000C9451000C9451000C945100F8
S11300400C9451000C9451000C94AF010C94510089
S11300500C9451000C940B010C9451000C9451001D
S11300600C9451000C94510011241FBECFEFD8E022
S1130070DEBFCDBF11E0A0E0B1E0E0E6F5E002C0F4
S113008005900D92A230B107D9F721E0A2E0B1E0CA
S113009001C01D92A931B207E1F70E94F8000C9447
S11300A0AE020C94000084B1826084B984B184608F
S11300B084B9E0E8F0E010828081806880838081E8
S11300C080628083808181608083E1E8F0E0108237
S11300D080818860808380818360808308958AB171
S11300E080648AB98AB180628AB914BC84B5806894
S11300F084BD84B5806284BD84B5836084BD15BC31
S113010085B5836085BD0895ECE7F0E010828081B9
S11301108064808380818062808380818360808327
S1130120EAE7F0E0108280818360808380818860C8
S11301308083808180688083808180648083089547
S11301408AB182608AB98AB18E7F8AB9E0ECF0E024
S1130150808182608083E1ECF0E080818869808323
S113016086E08093C2008CE090E09093C500809379
S1130170C4000895F894E1E6F0E080E8808384E028
S1130180808384B1886184B985B1877E85B987B15C
S11301908C7F87B988B1836088B9E8E6F0E0808114
S11301A082608083ECE6F0E08081836080830E943B
S11301B06F000E9453000E9484000E94A000789463
S11301C0089585B1886085B985B18F7E85B9EAE7E0
S11301D0F0E0808180648083089585B1806185B971
S11301E085B1877F85B9089585B1886185B90895FA
S11301F00E94BA0080910101823039F0833041F0CD
S11302008130C1F70E94E100F5CF0E94ED00F2CFEA
S11302100E94F400EFCF1F920F920FB60F92112499
S11302202F935F936F937F938F939F93AF93BF931A
S1130230EF93FF9380910101813009F081C0909187
S11302407C009F7090930301809179008093040156
S11302509330E9F424EB829FC00111246FEF70E026
S11302600E9486022BE1629FC001112464EB70E0BE
S11302700E948602675F7F4F7093890060938800B5
S1130280ECE7F0E08081807F8460808354C0943008
S1130290E9F424EB829FC00111246FEF70E00E9407
S11302A086022BE1629FC001112464EB70E00E947E
S11302B08602675F7F4F70938B0060938A00ECE740
S11302C0F0E08081807F8560808335C09530C9F4FB
S11302D024EB829FC00111246FEF70E00E9486021C
S11302E02BE1629FC001112464EB70E00E9486023E
S11302F0675F67BDECE7F0E08081807F8660808384
S11303001AC09630C1F424EB829FC00111246FEF10
S113031070E00E9486022BE1629FC001112464EB0D
S113032070E00E948602675F68BDECE7F0E08081C0
S1130330807F83608083EAE7F0E08081806480834B
S1130340FF91EF91BF91AF919F918F917F916F91A9
S11303505F912F910F900FBE0F901F9018951F92D1
S11303600F920FB60F9211242F933F934F935F93E5
S11303706F937F938F939F93AF93BF93EF93FF9369
S1130380CF93DF9300D000D0CDB7DEB780910101C9
S1130390833009F088C08091C6008A3019F08D300E
S11303A009F073C0E0910201F0E0EB5FFE4F1082B0
S11303B019821A821B821C8220E080E090E060E0B7
S11303C02EC0E22FF0E0EB5FFE4F308140ED430F93
S11303D04A3078F4AC01440F551F880F991F880FD9
S11303E0991F880F991F840F951F830F911DC09724
S11303F015C03C3211F0311111C0643078F4853BE2
S1130400910510F084EB90E0E1E0F0E0EC0FFD1FCB
S1130410E60FF11D80836F5F80E090E02F5F3091E5
S11304200201321770F689812BE1289FC001112443
S1130430E4EBF0E0BF010E948602675F7F4F709398
S11304408900609388008A81289FC0011124BF011C
S11304500E948602675F7F4F70938B0060938A00CF
S11304608B81289FC0011124BF010E948602675F0F
S113047067BD8C81289FC0011124BF010E948602A0
S1130480675F68BD109202010EC090910201933122
S113049050F4E091020191E09E0F90930201F0E08C
S11304A0EB5FFE4F80830F900F900F900F90DF91C2
S11304B0CF91FF91EF91BF91AF919F918F917F91D8
S11304C06F915F914F913F912F910F900FBE0F90BD
S11304D01F9018951F920F920FB60F9211248F93AD
S11304E09F9330990CC0809101018F5F809301012B
S11304F090910001891718F081E0809301019F9188
S11305008F910F900FBE0F901F90189597FB072E99
S113051016F4009407D077FD09D00E949A0207FCD4
S113052005D03EF4909581959F4F089570956195FF
S11305307F4F0895AA1BBB1B51E107C0AA1FBB1F15
S1130540A617B70710F0A61BB70B881F991F5A955B
S1130550A9F780959095BC01CD010895F894FFCF3B
S1050560040190
S9030000FC
