:100000000C9434000C9446000C9446000C9446006A
:100010000C9446000C9446000C9446000C94460048
:100020000C9446000C9446000C9446000C94460038
:100030000C9446000C9446000C9446000C94460028
:100040000C9446000C9446000C9467010C944600F6
:100050000C9446000C94C0000C9446000C9446008E
:100060000C9446000C94460011241FBECFEFD8E03C
:10007000DEBFCDBF21E0A0E0B1E001C01D92A23003
:10008000B207E1F70E94BD000C9499010C940000A6
:1000900084B1826084B984B1846084B9E0E8F0E01E
:1000A00010828081806880838081806280838081EB
:1000B00081608083E1E8F0E0108280818860808345
:1000C00080818360808308958AB180648AB98AB10F
:1000D00080628AB914BC84B5806884BD84B58360AD
:1000E00084BD15BC85B5886085BD85B5836085BD3B
:1000F0000895ECE7F0E01082808180648083808145
:1001000080628083808183608083EAE7F0E01082F0
:100110008081836080838081886080838081806823
:10012000808380818064808308958AB182608AB9E7
:100130008AB18E7F8AB91092C000E1ECF0E0808134
:100140008869808386E08093C20087E690E0909380
:10015000C5008093C4000895F894E1E6F0E080E8DB
:10016000808384E080830E9464000E9448000E9493
:1001700079000E949500789408950E94AC00FFCF0A
:100180001F920F920FB60F9211242F935F936F93CC
:100190007F938F939F93AF93BF93EF93FF93909130
:1001A0007C009F7090930001809179008093010101
:1001B0009330E9F424EB829FC00111246FEF70E0CB
:1001C0000E9471012BE1629FC001112464EB70E079
:1001D0000E947101675F7F4F709389006093880070
:1001E000ECE7F0E08081807F846080835CC09430A5
:1001F000E9F424EB829FC00111246FEF70E00E94AC
:1002000071012BE1629FC001112464EB70E00E9438
:100210007101675F7F4F70938B0060938A00ECE7FA
:10022000F0E08081807F836080833DC09530E9F479
:1002300024EB829FC00111246FEF70E00E947101D6
:100240002BE1629FC001112464EB70E00E947101F8
:10025000675F7F4F7093890060938800ECE7F0E060
:100260008081807F866080831EC09630E1F424EB1D
:10027000829FC00111246FEF70E00E9471012BE199
:10028000629FC001112464EB70E00E947101675FFE
:100290007F4F70938B0060938A00ECE7F0E08081E1
:1002A000807F83608083EAE7F0E0808180648083E0
:1002B000FF91EF91BF91AF919F918F917F916F913E
:1002C0005F912F910F900FBE0F901F9018951F9266
:1002D0000F920FB60F9211240F900FBE0F901F9028
:1002E000189597FB072E16F4009407D077FD09D0D8
:1002F0000E94850107FC05D03EF4909581959F4FA3
:100300000895709561957F4F0895AA1BBB1B51E11D
:1003100007C0AA1FBB1FA617B70710F0A61BB70B75
:10032000881F991F5A95A9F780959095BC01CD011A
:060330000895F894FFCFD0
:00000001FF
