S0130000526F626F7469635F41726D2E73726563C0
S11300000C9434000C9451000C9451000C94510045
S11300100C9405030C9451000C9451000C94510061
S11300200C9451000C9451000C9451000C94510008
S11300300C9451000C9451000C9451000C945100F8
S11300400C9451000C9451000C944A020C945100ED
S11300500C9451000C94A6010C9451000C94510082
S11300600C9451000C94510011241FBECFEFD8E022
S1130070DEBFCDBF11E0A0E0B1E0E2EAF6E002C0ED
S113008005900D92A430B107D9F721E0A4E0B1E0C6
S113009001C01D92A032B207E1F70E9493010C94B3
S11300A04F030C94000084B1826084B984B18460ED
S11300B084B9E0E8F0E010828081806880838081E8
S11300C080628083808181608083E1E8F0E0108237
S11300D080818860808380818360808308958AB171
S11300E080648AB98AB180628AB914BC84B5806894
S11300F084BD84B5806284BD84B5836084BD15BC31
S113010085B5836085BD0895ECE7F0E010828081B9
S11301108064808380818062808380818360808327
S1130120EAE7F0E0108280818360808380818860C8
S11301308083808180688083808180648083089547
S11301408AB182608AB98AB18E7F8AB9E0ECF0E024
S1130150808182608083E1ECF0E080818869808323
S113016086E08093C2008CE090E09093C500809379
S1130170C4000895F894E1E6F0E080E8808384E028
S1130180808384B1886184B985B1877E85B987B15C
S11301908C7F87B988B1836088B9E8E6F0E0808114
S11301A082608083ECE6F0E08081836080830E943B
S11301B06F000E9453000E9484000E94A000789463
S11301C00895F999FECF70E072BD61BD80BD8FB313
S11301D084608FBB8FB382608FBB0895F999FECF83
S11301E090E092BD81BD8FB381608FBB80B50895CF
S11301F085B1886085B985B18F7E85B9EAE7F0E07D
S113020080818064808380910001811102C01092FA
S1130210070180910901813071F560910701860F12
S11302208093070180918800909189000E94E100E9
S11302306091070181E0860F8093070180918A0015
S113024090918B000E94E1006091070181E0860F8C
S11302508093070187B50E94E1006091070181E066
S1130260860F8093070188B50E94E10081E08093A6
S1130270000110920901089585B1806185B985B1A5
S1130280877F85B910920001809109018130F1F5D1
S1130290809105018430D0F58091060191E0980F9A
S11302A0909306010E94EE0090E090938900809361
S11302B088008091060191E0980F909306010E94B6
S11302C0EE0090E090938B0080938A008091060169
S11302D091E0980F909306010E94EE0087BD8091F3
S11302E0060191E0980F909306010E94EE0088BDEC
S11302F0809105018F5F809305012FEF81EE94E0DB
S1130300215080409040E1F700C00000089585B17D
S1130310886185B9109205011092000110920701BD
S11303201092060108950E94BA0080910201823061
S113033039F0833041F08130C1F70E94F800F5CFE5
S11303400E943C01F2CF0E948701EFCF1F920F92CF
S11303500FB60F9211242F935F936F937F938F9314
S11303609F93AF93BF93EF93FF93809102018130EA
S113037009F081C090917C009F7090930801809156
S1130380790080930A019330E9F424EB829FC00141
S113039011246FEF70E00E9427032BE1629FC001DC
S11303A0112464EB70E00E942703675F7F4F709312
S11303B0890060938800ECE7F0E08081807F8460AE
S11303C0808354C09430E9F424EB829FC00111244B
S11303D06FEF70E00E9427032BE1629FC00111249C
S11303E064EB70E00E942703675F7F4F70938B007C
S11303F060938A00ECE7F0E08081807F85608083F1
S113040035C09530C9F424EB829FC00111246FEFED
S113041070E00E9427032BE1629FC001112464EB6A
S113042070E00E942703675F67BDECE7F0E080811E
S1130430807F866080831AC09630C1F424EB829F4B
S1130440C00111246FEF70E00E9427032BE1629F2B
S1130450C001112464EB70E00E942703675F68BD4C
S1130460ECE7F0E08081807F83608083EAE7F0E05E
S1130470808180648083FF91EF91BF91AF919F91C0
S11304808F917F916F915F912F910F900FBE0F907D
S11304901F9018951F920F920FB60F9211242F934D
S11304A03F934F935F936F937F938F939F93AF93F8
S11304B0BF93EF93FF93CF93DF9300D000D0CDB7DA
S11304C0DEB780910201833009F088C08091C600B4
S11304D08A3019F08D3009F073C0E0910401F0E026
S11304E0E45FFE4F108219821A821B821C8220E074
S11304F080E090E060E02EC0E22FF0E0E45FFE4F89
S1130500308140ED430F4A3078F4AC01440F551F5D
S1130510880F991F880F991F880F991F840F951FA3
S1130520830F911DC09715C03C3211F0311111C0D9
S1130530643078F4853B910510F084EB90E0E1E0C1
S1130540F0E0EC0FFD1FE60FF11D80836F5F80E08C
S113055090E02F5F30910401321770F689812BE10E
S1130560289FC0011124E4EBF0E0BF010E9427039F
S1130570675F7F4F70938900609388008A81289F0A
S1130580C0011124BF010E942703675F7F4F70934E
S11305908B0060938A008B81289FC0011124BF01C6
S11305A00E942703675F67BD8C81289FC0011124C7
S11305B0BF010E942703675F68BD109204010EC04B
S11305C090910401933150F4E091040191E09E0F65
S11305D090930401F0E0E45FFE4F80830F900F904E
S11305E00F900F90DF91CF91FF91EF91BF91AF9159
S11305F09F918F917F916F915F914F913F912F9137
S11306000F900FBE0F901F9018951F920F920FB668
S11306100F9211248F939F9330990DC08091020102
S11306208F5F8093020190910101891748F081E066
S11306308093020105C0319903C081E080930901D0
S11306409F918F910F900FBE0F901F90189597FB5D
S1130650072E16F4009407D077FD09D00E943B03BF
S113066007FC05D03EF4909581959F4F08957095B1
S113067061957F4F0895AA1BBB1B51E107C0AA1FB8
S1130680BB1FA617B70710F0A61BB70B881F991F2F
S11306905A95A9F780959095BC01CD010895F894D9
S10506A0FFCF86
S10706A2010401004A
S9030000FC
