S0130000526F626F7469635F41726D2E73726563C0
S11300000C9434000C9451000C9451000C94510045
S11300100C9451030C9451000C9451000C94510015
S11300200C9451000C9451000C9451000C94510008
S11300300C9451000C9451000C9451000C945100F8
S11300400C9451000C9451000C948D020C945100AA
S11300500C9451000C94DE010C9451000C9451004A
S11300600C9451000C94510011241FBECFEFD8E022
S1130070DEBFCDBF11E0A0E0B1E0EAE3F7E002C0EB
S113008005900D92A430B107D9F721E0A4E0B1E0C6
S113009001C01D92A132B207E1F70E94CB010C947A
S11300A09B030C940000ECE7F0E0108280818064F4
S11300B08083808180628083808183608083EAE79B
S11300C0F0E01082808183608083808188608083F7
S11300D0808180688083808180648083089584B176
S11300E0826084B984B1846084B9E0E8F0E010826D
S11300F08081806880838081806280838081816048
S11301008083E1E8F0E010828081886080838081D0
S11301108360808308958AB180648AB98AB18062D9
S11301208AB914BC84B5806884BD84B5806284BDFA
S113013084B5836084BD15BC85B5836085BD089591
S11301408AB182608AB98AB18E7F8AB9E0ECF0E024
S1130150808182608083E1ECF0E080818869808323
S113016086E08093C2008CE090E09093C500809379
S1130170C4000895F894E1E6F0E080E8808384E028
S1130180808384B1886184B985B1877E85B987B15C
S11301908C7F87B988B1836088B9E8E6F0E0808114
S11301A082608083ECE6F0E08081836080830E943B
S11301B08B000E946F000E9453000E94A00078945C
S11301C00895F999FECF70E072BD61BD80BD8FB313
S11301D084608FBB8FB382608FBB0895F999FECF83
S11301E090E092BD81BD8FB381608FBB80B50895CF
S11301F085B1886085B985B18F7E85B9EAE7F0E07D
S113020080818064808380910001811102C01092FA
S11302100801811106C080910B01813011F4109204
S11302200A0180910B01813009F045C080910A01D7
S1130230853008F040C085B1877F85B98FED9EE297
S11302400197F1F700C0000085B1886085B960911D
S1130250080181E0860F80930801809188009091C5
S113026089000E94E1006091080181E0860F80937B
S1130270080180918A0090918B000E94E1006091B6
S1130280080181E0860F8093080187B50E94E10090
S11302906091080181E0860F8093080188B50E946F
S11302A0E10081E08093000110920B0180910A012A
S11302B08F5F80930A01089585B1806185B985B106
S11302C0877F85B9109200018091050181110CC0CE
S11302D080910B01813041F41092070110920601C4
S11302E08093050110920B0180910501882309F484
S11302F043C09091060180910A019817D8F5809126
S1130300070191E0980F909307010E94EE0090E09E
S113031090938900809388008091070191E0980F61
S1130320909307010E94EE0090E090938B008093DD
S11303308A008091070191E0980F909307010E9431
S1130340EE0087BD8091070191E0980F909307011B
S11303500E94EE0088BD809106018F5F80930601A4
S11303602FEF81EE94E0215080409040E1F700C0EF
S11303700000089510920501089585B1886185B93A
S113038010920601109200011092080110920701C8
S11303901092050108950E94BA00809102018230F2
S11303A039F0833041F08130C1F70E94F800F5CF75
S11303B00E945C01F2CF0E94BD01EFCF1F920F9209
S11303C00FB60F9211242F935F936F937F938F93A4
S11303D09F93AF93BF93EF93FF938091020181307A
S11303E009F08CC090917C009F70909309018091DA
S11303F0790080930C019330E9F424EB829FC001CF
S113040011246FEF70E00E9473032BE1629FC0011F
S1130410112464EB70E00E947303675F7F4F709355
S11304208B0060938A00ECE7F0E08081807F846039
S113043080835FC0943021F524EB829FC001112496
S11304406FEF70E00E9473037727CB01880F991F29
S1130450680F791FCB01880F991F880F991F64EBD0
S113046070E00E9473036E5E7F4F70938900609307
S11304708800ECE7F0E08081807F8560808339C06C
S11304809530C9F424EB829FC00111246FEF70E012
S11304900E94730326E1629FC001112464EB70E0A3
S11304A00E947303645F67BDECE7F0E08081807FA6
S11304B0866080831EC09630E1F424EB829FC001E5
S11304C011246FEF70E00E947303CB01992782958A
S11304D09295907F9827807F982764EB70E00E9424
S11304E073036C5E68BDECE7F0E08081807F83601D
S11304F08083EAE7F0E0808180648083FF91EF915C
S1130500BF91AF919F918F917F916F915F912F9147
S11305100F900FBE0F901F9018951F920F920FB659
S11305200F9211242F933F934F935F936F937F9375
S11305308F939F93AF93BF93EF93FF93CF93DF93E7
S113054000D000D0CDB7DEB780910201833009F02E
S113055091C08091C6008A3019F08D3009F07CC0BA
S1130560E0910401F0E0E35FFE4F108219821A82E9
S11305701B821C8220E080E090E060E02EC0E22F2D
S1130580F0E0E35FFE4F308140ED430F4A3078F4F2
S1130590AC01440F551F880F991F880F991F880FAE
S11305A0991F840F951F830F911DC09715C03C326E
S11305B011F0311111C0643078F4853B910510F0CD
S11305C084EB90E0E1E0F0E0EC0FFD1FE60FF11D9D
S11305D080836F5F80E090E02F5F309104013217D9
S11305E070F689812BE1829FC001112424EB30E055
S11305F0B9010E947303675F7F4F70938900609312
S113060088008A8190E0AC01440F551F840F951F28
S1130610880F991F880F991FB9010E9473036E5E9A
S11306207F4F70938B0060938A008B8146E1849F97
S1130630C0011124B9010E947303645F67BD8C81FA
S113064040E1849FC0011124B9010E9473036C5ED0
S113065068BD109204010EC090910401933150F4CE
S1130660E091040191E09E0F90930401F0E0E35FB8
S1130670FE4F80830F900F900F900F90DF91CF91DA
S1130680FF91EF91BF91AF919F918F917F916F9166
S11306905F914F913F912F910F900FBE0F901F903C
S11306A018951F920F920FB60F9211248F939F9358
S11306B030990DC0809102018F5F80930201909167
S11306C00101891748F081E08093020105C0319946
S11306D003C081E080930B019F918F910F900FBE17
S11306E00F901F90189597FB072E16F4009407D0CF
S11306F077FD09D00E94870307FC05D03EF490954E
S113070081959F4F0895709561957F4F0895AA1B19
S1130710BB1B51E107C0AA1FBB1FA617B70710F0E8
S1130720A61BB70B881F991F5A95A9F7809590951A
S10D0730BC01CD010895F894FFCF39
S107073A01040100B1
S9030000FC
